{
  "_format": "hh-sol-artifact-1",
  "contractName": "DepositLock",
  "sourceName": "contracts/DepositLock.sol",
  "abi": [
    {
      "inputs": [
        {
          "internalType": "address",
          "name": "initialOwner",
          "type": "address"
        }
      ],
      "stateMutability": "nonpayable",
      "type": "constructor"
    },
    {
      "inputs": [
        {
          "internalType": "address",
          "name": "owner",
          "type": "address"
        }
      ],
      "name": "OwnableInvalidOwner",
      "type": "error"
    },
    {
      "inputs": [
        {
          "internalType": "address",
          "name": "account",
          "type": "address"
        }
      ],
      "name": "OwnableUnauthorizedAccount",
      "type": "error"
    },
    {
      "anonymous": false,
      "inputs": [
        {
          "indexed": true,
          "internalType": "address",
          "name": "previousOwner",
          "type": "address"
        },
        {
          "indexed": true,
          "internalType": "address",
          "name": "newOwner",
          "type": "address"
        }
      ],
      "name": "OwnershipTransferred",
      "type": "event"
    },
    {
      "inputs": [
        {
          "internalType": "address",
          "name": "",
          "type": "address"
        }
      ],
      "name": "balances",
      "outputs": [
        {
          "internalType": "uint256",
          "name": "",
          "type": "uint256"
        }
      ],
      "stateMutability": "view",
      "type": "function"
    },
    {
      "inputs": [
        {
          "internalType": "uint256",
          "name": "_depositAmount",
          "type": "uint256"
        }
      ],
      "name": "deposit",
      "outputs": [],
      "stateMutability": "payable",
      "type": "function"
    },
    {
      "inputs": [],
      "name": "getContractBalnce",
      "outputs": [
        {
          "internalType": "uint256",
          "name": "",
          "type": "uint256"
        }
      ],
      "stateMutability": "view",
      "type": "function"
    },
    {
      "inputs": [],
      "name": "getDepositors",
      "outputs": [
        {
          "internalType": "address[]",
          "name": "",
          "type": "address[]"
        }
      ],
      "stateMutability": "view",
      "type": "function"
    },
    {
      "inputs": [
        {
          "internalType": "address",
          "name": "_addr",
          "type": "address"
        }
      ],
      "name": "getUserBalnce",
      "outputs": [
        {
          "internalType": "uint256",
          "name": "",
          "type": "uint256"
        }
      ],
      "stateMutability": "view",
      "type": "function"
    },
    {
      "inputs": [
        {
          "internalType": "address",
          "name": "",
          "type": "address"
        }
      ],
      "name": "lock",
      "outputs": [
        {
          "internalType": "bool",
          "name": "",
          "type": "bool"
        }
      ],
      "stateMutability": "view",
      "type": "function"
    },
    {
      "inputs": [
        {
          "internalType": "address",
          "name": "_addr",
          "type": "address"
        }
      ],
      "name": "lockAddress",
      "outputs": [],
      "stateMutability": "nonpayable",
      "type": "function"
    },
    {
      "inputs": [],
      "name": "owner",
      "outputs": [
        {
          "internalType": "address",
          "name": "",
          "type": "address"
        }
      ],
      "stateMutability": "view",
      "type": "function"
    },
    {
      "inputs": [],
      "name": "renounceOwnership",
      "outputs": [],
      "stateMutability": "nonpayable",
      "type": "function"
    },
    {
      "inputs": [
        {
          "internalType": "address",
          "name": "newOwner",
          "type": "address"
        }
      ],
      "name": "transferOwnership",
      "outputs": [],
      "stateMutability": "nonpayable",
      "type": "function"
    },
    {
      "inputs": [
        {
          "internalType": "address",
          "name": "_addr",
          "type": "address"
        }
      ],
      "name": "unlockAddress",
      "outputs": [],
      "stateMutability": "nonpayable",
      "type": "function"
    },
    {
      "inputs": [
        {
          "internalType": "uint256",
          "name": "_amount",
          "type": "uint256"
        }
      ],
      "name": "withdraw",
      "outputs": [],
      "stateMutability": "nonpayable",
      "type": "function"
    }
  ],
  "bytecode": "0x608060405234801561001057600080fd5b506040516115ae3803806115ae833981810160405281019061003291906101e2565b80600073ffffffffffffffffffffffffffffffffffffffff168173ffffffffffffffffffffffffffffffffffffffff16036100a55760006040517f1e4fbdf700000000000000000000000000000000000000000000000000000000815260040161009c919061021e565b60405180910390fd5b6100b4816100bb60201b60201c565b5050610239565b60008060009054906101000a900473ffffffffffffffffffffffffffffffffffffffff169050816000806101000a81548173ffffffffffffffffffffffffffffffffffffffff021916908373ffffffffffffffffffffffffffffffffffffffff1602179055508173ffffffffffffffffffffffffffffffffffffffff168173ffffffffffffffffffffffffffffffffffffffff167f8be0079c531659141344cd1fd0a4f28419497f9722a3daafe3b4186f6b6457e060405160405180910390a35050565b600080fd5b600073ffffffffffffffffffffffffffffffffffffffff82169050919050565b60006101af82610184565b9050919050565b6101bf816101a4565b81146101ca57600080fd5b50565b6000815190506101dc816101b6565b92915050565b6000602082840312156101f8576101f761017f565b5b6000610206848285016101cd565b91505092915050565b610218816101a4565b82525050565b6000602082019050610233600083018461020f565b92915050565b611366806102486000396000f3fe6080604052600436106100a75760003560e01c80638da5cb5b116100645780638da5cb5b146101ba578063b6b55f25146101e5578063b7eb5e0a14610201578063daad6f1f1461022a578063f2fde38b14610255578063f435f5a71461027e576100a7565b806323beafec146100ac57806327e235e3146100e95780632e1a7d4d1461012657806334a90d021461014f5780636c7b7f2e14610178578063715018a6146101a3575b600080fd5b3480156100b857600080fd5b506100d360048036038101906100ce9190610de3565b6102bb565b6040516100e09190610e29565b60405180910390f35b3480156100f557600080fd5b50610110600480360381019061010b9190610de3565b610304565b60405161011d9190610e29565b60405180910390f35b34801561013257600080fd5b5061014d60048036038101906101489190610e70565b61031c565b005b34801561015b57600080fd5b5061017660048036038101906101719190610de3565b61051c565b005b34801561018457600080fd5b5061018d61057e565b60405161019a9190610f5b565b60405180910390f35b3480156101af57600080fd5b506101b86107cc565b005b3480156101c657600080fd5b506101cf6107e0565b6040516101dc9190610f8c565b60405180910390f35b6101ff60048036038101906101fa9190610e70565b610809565b005b34801561020d57600080fd5b5061022860048036038101906102239190610de3565b610992565b005b34801561023657600080fd5b5061023f6109f5565b60405161024c9190610e29565b60405180910390f35b34801561026157600080fd5b5061027c60048036038101906102779190610de3565b6109fd565b005b34801561028a57600080fd5b506102a560048036038101906102a09190610de3565b610a83565b6040516102b29190610fc2565b60405180910390f35b6000600260008373ffffffffffffffffffffffffffffffffffffffff1673ffffffffffffffffffffffffffffffffffffffff168152602001908152602001600020549050919050565b60026020528060005260406000206000915090505481565b600260003373ffffffffffffffffffffffffffffffffffffffff1673ffffffffffffffffffffffffffffffffffffffff1681526020019081526020016000205481111561039e576040517f08c379a00000000000000000000000000000000000000000000000000000000081526004016103959061103a565b60405180910390fd5b600160003373ffffffffffffffffffffffffffffffffffffffff1673ffffffffffffffffffffffffffffffffffffffff16815260200190815260200160002060009054906101000a900460ff161561042b576040517f08c379a0000000000000000000000000000000000000000000000000000000008152600401610422906110a6565b60405180910390fd5b80600260003373ffffffffffffffffffffffffffffffffffffffff1673ffffffffffffffffffffffffffffffffffffffff168152602001908152602001600020600082825461047a91906110f5565b925050819055506000600260003373ffffffffffffffffffffffffffffffffffffffff1673ffffffffffffffffffffffffffffffffffffffff16815260200190815260200160002054036104d2576104d133610aa3565b5b3373ffffffffffffffffffffffffffffffffffffffff166108fc829081150290604051600060405180830381858888f19350505050158015610518573d6000803e3d6000fd5b5050565b610524610c2d565b60018060008373ffffffffffffffffffffffffffffffffffffffff1673ffffffffffffffffffffffffffffffffffffffff16815260200190815260200160002060006101000a81548160ff02191690831515021790555050565b60606000805b60038054905081101561063357600060026000600384815481106105ab576105aa611129565b5b9060005260206000200160009054906101000a900473ffffffffffffffffffffffffffffffffffffffff1673ffffffffffffffffffffffffffffffffffffffff1673ffffffffffffffffffffffffffffffffffffffff16815260200190815260200160002054111561062657818061062290611158565b9250505b8080600101915050610584565b5060008167ffffffffffffffff8111156106505761064f6111a0565b5b60405190808252806020026020018201604052801561067e5781602001602082028036833780820191505090505b5090506000915060005b6003805490508110156107c357600060026000600384815481106106af576106ae611129565b5b9060005260206000200160009054906101000a900473ffffffffffffffffffffffffffffffffffffffff1673ffffffffffffffffffffffffffffffffffffffff1673ffffffffffffffffffffffffffffffffffffffff1681526020019081526020016000205411156107b6576003818154811061072f5761072e611129565b5b9060005260206000200160009054906101000a900473ffffffffffffffffffffffffffffffffffffffff1682848151811061076d5761076c611129565b5b602002602001019073ffffffffffffffffffffffffffffffffffffffff16908173ffffffffffffffffffffffffffffffffffffffff168152505082806107b290611158565b9350505b8080600101915050610688565b50809250505090565b6107d4610c2d565b6107de6000610cb4565b565b60008060009054906101000a900473ffffffffffffffffffffffffffffffffffffffff16905090565b6000811161084c576040517f08c379a00000000000000000000000000000000000000000000000000000000081526004016108439061121b565b60405180910390fd5b80341461088e576040517f08c379a0000000000000000000000000000000000000000000000000000000008152600401610885906112ad565b60405180910390fd5b6000600260003373ffffffffffffffffffffffffffffffffffffffff1673ffffffffffffffffffffffffffffffffffffffff1681526020019081526020016000205403610939576003339080600181540180825580915050600190039060005260206000200160009091909190916101000a81548173ffffffffffffffffffffffffffffffffffffffff021916908373ffffffffffffffffffffffffffffffffffffffff1602179055505b34600260003373ffffffffffffffffffffffffffffffffffffffff1673ffffffffffffffffffffffffffffffffffffffff168152602001908152602001600020600082825461098891906112cd565b9250508190555050565b61099a610c2d565b6000600160008373ffffffffffffffffffffffffffffffffffffffff1673ffffffffffffffffffffffffffffffffffffffff16815260200190815260200160002060006101000a81548160ff02191690831515021790555050565b600047905090565b610a05610c2d565b600073ffffffffffffffffffffffffffffffffffffffff168173ffffffffffffffffffffffffffffffffffffffff1603610a775760006040517f1e4fbdf7000000000000000000000000000000000000000000000000000000008152600401610a6e9190610f8c565b60405180910390fd5b610a8081610cb4565b50565b60016020528060005260406000206000915054906101000a900460ff1681565b60005b600380549050811015610c29578173ffffffffffffffffffffffffffffffffffffffff1660038281548110610ade57610add611129565b5b9060005260206000200160009054906101000a900473ffffffffffffffffffffffffffffffffffffffff1673ffffffffffffffffffffffffffffffffffffffff1603610c1c5760036001600380549050610b3891906110f5565b81548110610b4957610b48611129565b5b9060005260206000200160009054906101000a900473ffffffffffffffffffffffffffffffffffffffff1660038281548110610b8857610b87611129565b5b9060005260206000200160006101000a81548173ffffffffffffffffffffffffffffffffffffffff021916908373ffffffffffffffffffffffffffffffffffffffff1602179055506003805480610be257610be1611301565b5b6001900381819060005260206000200160006101000a81549073ffffffffffffffffffffffffffffffffffffffff02191690559055610c29565b8080600101915050610aa6565b5050565b610c35610d78565b73ffffffffffffffffffffffffffffffffffffffff16610c536107e0565b73ffffffffffffffffffffffffffffffffffffffff1614610cb257610c76610d78565b6040517f118cdaa7000000000000000000000000000000000000000000000000000000008152600401610ca99190610f8c565b60405180910390fd5b565b60008060009054906101000a900473ffffffffffffffffffffffffffffffffffffffff169050816000806101000a81548173ffffffffffffffffffffffffffffffffffffffff021916908373ffffffffffffffffffffffffffffffffffffffff1602179055508173ffffffffffffffffffffffffffffffffffffffff168173ffffffffffffffffffffffffffffffffffffffff167f8be0079c531659141344cd1fd0a4f28419497f9722a3daafe3b4186f6b6457e060405160405180910390a35050565b600033905090565b600080fd5b600073ffffffffffffffffffffffffffffffffffffffff82169050919050565b6000610db082610d85565b9050919050565b610dc081610da5565b8114610dcb57600080fd5b50565b600081359050610ddd81610db7565b92915050565b600060208284031215610df957610df8610d80565b5b6000610e0784828501610dce565b91505092915050565b6000819050919050565b610e2381610e10565b82525050565b6000602082019050610e3e6000830184610e1a565b92915050565b610e4d81610e10565b8114610e5857600080fd5b50565b600081359050610e6a81610e44565b92915050565b600060208284031215610e8657610e85610d80565b5b6000610e9484828501610e5b565b91505092915050565b600081519050919050565b600082825260208201905092915050565b6000819050602082019050919050565b610ed281610da5565b82525050565b6000610ee48383610ec9565b60208301905092915050565b6000602082019050919050565b6000610f0882610e9d565b610f128185610ea8565b9350610f1d83610eb9565b8060005b83811015610f4e578151610f358882610ed8565b9750610f4083610ef0565b925050600181019050610f21565b5085935050505092915050565b60006020820190508181036000830152610f758184610efd565b905092915050565b610f8681610da5565b82525050565b6000602082019050610fa16000830184610f7d565b92915050565b60008115159050919050565b610fbc81610fa7565b82525050565b6000602082019050610fd76000830184610fb3565b92915050565b600082825260208201905092915050565b7f496e73756666696369656e742062616c616e6365000000000000000000000000600082015250565b6000611024601483610fdd565b915061102f82610fee565b602082019050919050565b6000602082019050818103600083015261105381611017565b9050919050565b7f596f75722077697468647261776c7320617265204c6f636b6564000000000000600082015250565b6000611090601a83610fdd565b915061109b8261105a565b602082019050919050565b600060208201905081810360008301526110bf81611083565b9050919050565b7f4e487b7100000000000000000000000000000000000000000000000000000000600052601160045260246000fd5b600061110082610e10565b915061110b83610e10565b9250828203905081811115611123576111226110c6565b5b92915050565b7f4e487b7100000000000000000000000000000000000000000000000000000000600052603260045260246000fd5b600061116382610e10565b91507fffffffffffffffffffffffffffffffffffffffffffffffffffffffffffffffff8203611195576111946110c6565b5b600182019050919050565b7f4e487b7100000000000000000000000000000000000000000000000000000000600052604160045260246000fd5b7f446465706f736974416d6f756e74206d757374206265203e2030000000000000600082015250565b6000611205601a83610fdd565b9150611210826111cf565b602082019050919050565b60006020820190508181036000830152611234816111f8565b9050919050565b7f53656e742045544820646f6573206e6f74206d61746368206465706f7369744160008201527f6d6f756e74000000000000000000000000000000000000000000000000000000602082015250565b6000611297602583610fdd565b91506112a28261123b565b604082019050919050565b600060208201905081810360008301526112c68161128a565b9050919050565b60006112d882610e10565b91506112e383610e10565b92508282019050808211156112fb576112fa6110c6565b5b92915050565b7f4e487b7100000000000000000000000000000000000000000000000000000000600052603160045260246000fdfea2646970667358221220748a561342de367147a90ea8dd165d563441c807489dbed4e6f19eab7b85713c64736f6c634300081c0033",
  "linkReferences": {},
  "deployedLinkReferences": {}
}